:10000000C0210020090E0000050E0000050E0000B2
:1000100000000000000000000000000000000000E0
:10002000000000000000000000000000050E0000BD
:100030000000000000000000050E0000050E00009A
:10004000050E0000050E0000050E0000050E000064
:100050009D090000050E0000050E00005D02000075
:10006000050E00003D0900004D0900005D0900007B
:100070006D0900007D0900008D090000050E0000DB
:10008000050E0000050E0000050E0000050E000024
:10009000050E000000000000000000001501000037
:1000A000050E0000050E0000050E0000050E000004
:1000B0000000000010B5064C2378002B07D1054B3B
:1000C000002B02D0044800E000BF0123237010BDC4
:1000D0000800002000000000F00F0000084B10B5E1
:1000E000002B03D00749084800E000BF0748036819
:1000F000002B00D110BD064B002BFBD09847F9E731
:10010000000000000C000020F00F0000F00F0000C5
:100110000000000070B52F4B1D682B681A7EDC7D37
:100120001440E20716D4630708D504232A6813761F
:10013000EB7E9B0702D5AB7E9B0742D4A30708D575
:1001400002232A681376EB7E5B0702D5AB7E5B0742
:100150003BD470BD01221A762A68537E5BB2002B15
:10016000FBDB69698B1C6B61538B9BB20B802B8B08
:10017000013B9BB22B83002B11D06B7F002BD2D085
:100180002A68537E5BB2002BFBDB137B02210B43FF
:1001900013732A68537E5BB2002BFBDBC3E701239A
:1001A0002A6893752B7F052BBDD100232B77EB7E1F
:1001B000DB07B8D5AB7EDB07B5D52800AB68984721
:1001C000B1E72800EB689847B8E72B692800984703
:1001D000BFE7C04678000020044A137802210B4391
:1001E000137053785BB2002BFBDB704700180040A4
:1001F00000B583B0124A936940210B43936101A972
:1002000000230B7005200F4B984705200E4B984795
:100210000E4A137801210B43137053785BB2002B05
:10022000FBDB0B4B19004031002204C39942FCD187
:100230001022084B1A60084B984703B000BDC04617
:1002400000040040B90D00002D0D00000018004012
:100250007C00002000E100E0D9010000F0B5DE469E
:1002600057464E464546E0B583B0C44B1F683D68CF
:100270002B78DB0914D12E8CB6B2002E00D02DE2E3
:10028000AE8BB6B2AB235B00FB5AAA225200BD5A1A
:100290001D4035400024BA4FB84B9946984608E2B5
:1002A0002B8C9BB2002B00D13DE1288C80B2B54B4A
:1002B000984704001F2800D935E1030008335B018B
:1002C000ED18ED79EDB2AB0741D0AF4A0123834081
:1002D000116899431160030008335B013A68944642
:1002E00063440322DA713B18AE331B78DB072ED54B
:1002F000A64B18703A68030008335B019B5C9B07B0
:100300009B0F012B00D194E04201A14B9B185A682E
:100310001201920C90B29D494A805A689204920C44
:100320008A805A689B490A405A60002807D16201B6
:10033000974B9B185B689B049B0C944A53808F4B94
:100340001868A31C1B01C3185B68904998476B078A
:100350001FD58A4B18680268230008335B019B5C39
:100360009B065B0F022B75D0230008335B019B5C5F
:100370009B065B0F032B00D19EE06201844B9B1810
:1003800000229A7203682200083252019B1804224C
:10039000DA712B0715D57C4A0123A34011689943D4
:1003A0001160764B1868230008335B01026894469D
:1003B00063440822DA710319AE331B789B0700D51A
:1003C00094E0EB0615D5704A0123A34011689943C8
:1003D00011606A4B1868230008335B010268944679
:1003E00063441022DA710319AE331B785B0700D522
:1003F0008AE0AB0600D42FE1634A0123A3401168D1
:10040000994311605D4B1868230008335B01026853
:10041000944663442022DA710319AE331B781B071C
:1004200000D419E159490C7024010419236B984731
:1004300012E14201564B9B185A689204920C5349A0
:100440004A805A681201920C8A805A68920B920371
:100450005A6074E7230008335B019B5C9B079B0F8A
:10046000012B81D161014A4B5B1808339B78DB0774
:1004700000D479E7444A0123A340116899431160ED
:100480006201434B9B1800229A72230008335B01E0
:100490000268944663440422DA710319AE331B7870
:1004A0009B0700D475E739490C7010234B7023016A
:1004B000C3189B6A98476CE7230008335B019B5C79
:1004C0009B079B0F012B00D057E76201304B9B1815
:1004D00000229A72230008335B010268D2180421BB
:1004E000D1710268D31810225A7152E727490C7053
:1004F0006201274B9B18DB891F2213404B7023019D
:10050000C3189B6A98475CE720490C706201204B36
:100510009B185B681B019B0C4B802301C318DB6A93
:100520000021984765E7AC8BA4B2630738D5042354
:10053000AB83154B1D6801230120102602E0013317
:10054000082B29D002009A401542F8D039681A00C9
:1005500008325201525C9206520F032AEFD11A0060
:1005600008325201525C9207920F012AE7D11A0019
:100570000832520189180E71E1E7C04624000020BC
:100580009C0F0000150F00003400002038000020F0
:10059000BC000020FF3F00F09D33FB5CDB0762D412
:1005A00023070BD50022AF4B1A60AF4B1868082306
:1005B000026893839D33C35C9B0758D4630608D5B8
:1005C000A94B18684023026893836533C35CDB063C
:1005D00050D4A30608D5A44B18682023026893833F
:1005E0008533C35C1B0748D4E30608D59E4B1868C7
:1005F0001023026893839533C35C5B0740D42306C2
:100600000BD50022974B1A60974B1868802302681D
:1006100093832533C35C9B0635D4E3050CD50022B8
:10062000904B1A60904B186880235B00026893839C
:100630005B3BC35C5B0629D4A3050DD50022894B27
:100640001A60894B186880239B00026893835C3B87
:10065000FF3BC35C7F2B1CD803B03CBC9046994643
:10066000A246AB46F0BD7B683800984798E78368A0
:100670009847A3E743699847ABE703699847B3E70F
:10068000C3689847BBE783699847C6E7C36998473B
:10069000D2E7036A9847DFE723002E339B004246E8
:1006A00012689B5871494246106898470134072CDC
:1006B000D2D06300DB5B334203D04A461268126833
:1006C00093832B42F2D0062CE6D1694B1B891B0980
:1006D000802252001340654A1360DDE73C00593424
:1006E000FF340023012294465F329146503A9246ED
:1006F0000D3A9346B8462F00C3E02A003D00474616
:1007000090465B01ED180823FF33EB5C5B0615D5C3
:1007100040220823FF33EA54883BFF3B4246134301
:10072000544A937160230B4296D0019B1B01FB1826
:10073000E0331B684F49380098478DE70823FF33A3
:10074000EB5C9B06EED520220823FF33EA54494B8D
:1007500042469A71E6E73D004746019A1300083386
:100760005B01ED181023EB71BB186133FF331B786D
:10077000DB0600D470E7100052013D4B9B185B680C
:100780009B049B0C3B490B800301FB18DC331B686B
:100790004046984760E72A003D00474690465B0187
:1007A000ED180823FF33EB5C9B071ED502220823BC
:1007B000FF33EA542F48883BFF3B42461343837183
:1007C000019B5A012A4B9B1810335B689B049B0CBE
:1007D00043808B0700D13FE7019B0D331B01FB18C2
:1007E0005B6824493800984736E70823FF33EB5C01
:1007F000DB07EED501220823FF33EA541D484346A8
:100800008371019B5B011A4AD21853689B049B0CAD
:10081000038053681B019B0C8380DAE70822FF32B8
:100820009A5C520779D504200822FF329854019827
:1008300042010F4B9B189B7A9B0705D50C4B9B18CD
:100840009A7A022082439A720A4B42469A71019B1D
:1008500008335B013A6894466344DB79DB075CD577
:10086000FAE6C046340000202400002028000020C2
:10087000BC0000202C00002001330134082B00D1E3
:10088000EAE6DDB2019332001A4161461142F3D02B
:100890001A0008325201BA18D279D2B2217A114024
:1008A000207801404846104200D026E750461042CA
:1008B00000D050E75846104200D06CE70C201042A0
:1008C000DAD02A003D00474690465B01EB1808222B
:1008D000FF329A5C1207A1D504380822FF329854DF
:1008E00001984201134B9B189B7E9B0705D5114B2A
:1008F0009B189A7E022082439A7680235B4242466E
:1009000013430D4A9371019B08335B013A68944687
:100910006344DB799B0700D59EE60C230B4200D194
:100920009AE6019B1B01FB18D8331B68024938006B
:10093000984791E6BC0000202C00002010B5024B27
:100940001B680020984710BD4000002010B5024BE6
:100950005B680120984710BD4000002010B5024B95
:100960009B680220984710BD4000002010B5024B44
:10097000DB680320984710BD4000002010B5024BF3
:100980001B690420984710BD4000002010B5024BA1
:100990005B690520984710BD4000002070B500221B
:1009A000104B1A70002310491F25104E0D4C0AE001
:1009B0000D4908E023780133DBB223700F2B10D8E8
:1009C00000211F2BF4D92800184001228240086919
:1009D0001042EFD00A619B009B59002BEAD0984748
:1009E000E8E770BDBC010020001800407C0000203A
:1009F00030B5084B1C68084A00258021490201389F
:100A000007D3002CFBD05460956013680B42FCD0D8
:100A1000F5E730BD0000002010E000E07047000066
:100A20000C4B1B68002B06D1EFF31083002B07D073
:100A30000022094B1A70074A13680133136070478C
:100A400072B6BFF35F8F0022044B1A700132024B63
:100A50001A70F0E7580000205C000020040000201D
:100A6000084B1A68013A1A601B68002B09D1064B23
:100A70001B78002B05D00122044B1A70BFF35F8F47
:100A800062B67047580000205C000020040000207F
:100A900070B50C490B6A04788578407801221040C3
:100AA00080014026B34303432A40D2018020834380
:100AB00013430322224012020348034013430B62F4
:100AC00070BDC04600080040FFFCFFFF082803D8A7
:100AD0008000254B1B589F46172044E0234A136A89
:100AE00002210B43136200203DE0204A936902215A
:100AF0000B439361002036E01C4A138A02210B430A
:100B0000138200202FE0194A938A02210B4393821B
:100B1000002028E016490B68022213430B60134B98
:100B20009A8419000E32CB681A42FCD0104A9168A0
:100B30000E4BD96252689A6200229A8419001032D0
:100B4000CB681A42FCD00A4B1B689BB2074A9384BD
:100B5000002008E0054944228B5C022003438B54AB
:100B6000002000E000207047AC0F000000080040AB
:100B70006000002030B585B0C222D2001A4B9A60C6
:100B80001A4A53681E218B43536001236A4613702F
:100B90000024174DE0B26946A8470134252CF9D14D
:100BA00003A800244470012585700470114B9847F8
:100BB0000620114B9847114B9847114B1C725C72E1
:100BC0009C72DC7201956B465C7006236A4613705A
:100BD00014725472694600200A4B984700200A4B51
:100BE000984705B030BDC0460008004000400041B5
:100BF000B90D0000910A0000CD0A00000D0C0000A4
:100C000000040040310C0000E90C0000064A936922
:100C100008210B4393610122044B1A7019000B78D1
:100C20001342FCD17047C04600040040000C004055
:100C300070B5060004000D782D0205434B78002B9B
:100C400002D08023DB021D434B7A002B02D080238D
:100C50001B031D434868012810D9431E184234D194
:100C6000022830D90223002201325B009842FBD8CF
:100C700012023243140080235B031D430B7A002BC6
:100C800002D080239B031D43134A53785BB2002B91
:100C9000FBDB124B9847124B1E700F4A53785BB226
:100CA000002BFBDB0C4B9C601A0053785BB2002BD3
:100CB000FBDB094A5368802149020B401D43556004
:100CC000084B984770BD0022D2E7040234438023CA
:100CD0009B021D43D2E7C046000C0040210A0000E1
:100CE000080C0040610A000010B504000B4A53785C
:100CF0005BB2002BFBDB0A4B98470A4B1C70074A80
:100D000053785BB2002BFBDB044A516880235B0203
:100D10000B435360044B984710BDC046000C004085
:100D2000210A0000040C0040610A000010B5040014
:100D3000064B9847064B1C70064A53888021C90110
:100D40000B435380044B984710BDC046210A000056
:100D5000020C0040000C0040610A000010B50400C5
:100D60000F4B98470F4B1C700F4A53881B05180FE9
:100D700053880E490B40538053880D490B405380D4
:100D800011008022D2014B881342FCD106494A88C7
:100D900003020648024013434B80064B984710BDA0
:100DA000210A0000020C0040000C0040FFF0FFFF91
:100DB000FFBFFFFF610A000010B50C782402044356
:100DC000024B9847A4B2024B5C8010BD5D0D000041
:100DD000000C00407047000010B5054B9847054BCC
:100DE0009847054B9847054B9847054B984710BDCA
:100DF000750B00001D0A0000D50D0000F101000078
:100E0000D50D0000FEE70000F8B52A4A2A4B9A42A9
:100E100011D01A00294B9A420DD2294A03339B1A4A
:100E20009B0801339B000022234822498C588450A0
:100E300004329A42FAD1234A234B9A420AD2D3432C
:100E400021495B1803218B4304339B18002102C204
:100E50009342FCD11D4AFF211D4B8B439360FD390A
:100E600090235B001B4AD1501B4AD3780325AB4328
:100E700002242343D370D3780C27BB430826334383
:100E8000D370164B987B30229043202210439873E6
:100E9000997BB943314399739A7BAA4322439A734E
:100EA0000F4A536880210B4353600E4B98470E4BFB
:100EB0009847FEE7F00F0000000000200800002027
:100EC0000400002008000020C001002000ED00E028
:100ED0000000000000700041005000410048004147
:100EE00000400041550F0000ED0E0000F8B5064B24
:100EF0009847064F8026B602FA25AD00044CFE61E5
:100F00002800A047FBE7C046D90D0000004400417F
:100F1000F1090000414208401C2101231B049842B2
:100F200001D3000C10391B0A984201D3000A08397A
:100F30001B09984201D30009043902A2105C401A2F
:100F40007047C0461B1C1D1D1E1E1E1E1F1F1F1F7F
:100F50001F1F1F1F70B500260C4D0D4C641BA410E5
:100F6000A64209D1002600F033F80A4D0A4C641B52
:100F7000A410A64205D170BDB300EB5898470136C6
:100F8000EEE7B300EB5898470136F2E7DC0F0000BC
:100F9000DC0F0000DC0F0000E00F00000400080080
:100FA000700080000100000100020000F80A00004B
:100FB000D80A0000D80A0000640B0000EA0A00000A
:100FC000060B0000DC0A0000140B0000540B0000AC
:100FD000F8B5C046F8BC08BC9E467047DD0000006E
:100FE000F8B5C046F8BC08BC9E467047B500000086
:080FF000401F00000100000099
:0400000300000E09E2
:00000001FF
