:10000000C0210020AD0C0000A90C0000A90C0000CC
:1000100000000000000000000000000000000000E0
:10002000000000000000000000000000A90C00001B
:100030000000000000000000A90C0000A90C000056
:10004000A90C0000A90C0000A90C0000A90C0000DC
:1000500085080000A90C0000A90C00007502000032
:10006000A90C000025080000350800004508000024
:10007000550800006508000075080000A90C000084
:10008000A90C0000A90C0000A90C0000A90C00009C
:10009000A90C000000000000000000003501000075
:1000A000A90C0000A90C0000A90C0000A90C00007C
:1000B0000000000010B5064C2378002B07D1054B3B
:1000C000002B02D0044800E000BF0123237010BDC4
:1000D00008000020000000005C0E0000084B10B576
:1000E000002B03D00749084800E000BF0748036819
:1000F000002B00D110BD064B002BFBD09847F9E731
:10010000000000000C0000205C0E00005C0E0000EF
:100110000000000003685A7E52B2002AFBDB022274
:10012000197B0A431A730268537E5BB2002BFBDB18
:100130007047000070B5284B1C6823681A7EDD7D6F
:1001400015400122154228D01A7621684B7E5BB2F9
:10015000002BFBDB6269931C63614B8B9BB21380AA
:10016000238B013B9BB22383002B10D101222168FA
:100170008A75217F052910D12377E37E13420CD0A5
:10018000A37E134209D02000A368984705E0637F4F
:10019000002B02D02000114B984704231D420BD0A6
:1001A00022681376E27E023B1A4205D0A27E1A42F2
:1001B00002D02000E368984702231D420BD022683A
:1001C0001376E27EDB181A4205D0A27E1A4202D0D4
:1001D00023692000984770BD7800002015010000B9
:1001E000014B5878C009704700180040022310B531
:1001F000044A11780B431370034B98470028FBD136
:1002000010BDC04600180040E1010000402307B5C2
:10021000104A052091690B439361002301A90B70DB
:100220000D4B98470D4B0520984701230C4A117838
:100230000B4313700B4B98470028FBD102000A4B6D
:100240001A5004304028FBD11022084B1A60084B8A
:10025000984707BD000400405D0C0000D50B00006E
:1002600000180040E10100007C00002000E100E0F7
:10027000ED010000F0B5D74E85B037683D682B78AA
:10028000DB0900D122E12B8C002B00D12DE2288C40
:10029000D14B80B2984703000400032008335B0170
:1002A000ED18ED79EAB20192024231D00121CB4A38
:1002B00094460A006546A2402D6895432A0065468B
:1002C0002A603A68D218D0713A19AE3212780A42CE
:1002D0001ED0C34A600114703968595CC14B89074C
:1002E000890F1B18012900D0B4E059688904890CD2
:1002F000518059680901890C91805A68920B9203C8
:100300005A60A31C1B01FB185B68B549380098476D
:100310000423019A1A4238D02200AE4B08321868E2
:10032000530101689C465B5C9B065B0F0293022BAA
:1003300000D0A4E063465B5C9B079B0F012B00D0C1
:100340009DE0A84F65017D192F0003950837BF7800
:10035000FD0700D493E0A340A04A1168994300230D
:100360001160039A9372042203686344DA710319DB
:10037000AE331B78029A134207D0102398494B7072
:100380002301C3180C709B6A98470822019B1342F3
:100390001DD00123A3409149086898430860306844
:1003A000A31801685B01CB18DA710319AE331B780F
:1003B0009B070CD58B4B62019B181F22DB89884958
:1003C00013404B702301C3180C709B6A984710228E
:1003D000019B13421FD00123A34080490868984322
:1003E000230008603068083301685B01CB18DA71BC
:1003F0000319AE331B785B070DD5794A794B610140
:100400005B1814705B6800211B019B0C5380230157
:10041000C318DB6A98472022019B134200D1F9E1FF
:100420000123A3406D4908689843230008603068A1
:10043000083301685B01CB18DA710319AE331B78FE
:100440001B0700D4E6E166490C7024010419236BF4
:100450009847DFE15968644D0901890C518088B2E1
:1004600059688904890C918059682940596000288D
:1004700000D046E75B689B049B0C538041E7520128
:10048000535C584D9B065B0FAC466701032B11D1A3
:10049000535C9B079B0F012B0CD139000023614457
:1004A0008B72042103689B18D97103689A18102372
:1004B00053716AE73A000023624493722200036892
:1004C000083252019B180422DA715EE72C8CA2B22A
:1004D0000192002A2CD1AB8B55329BB20293AB23F5
:1004E000FF325B00FB5ABD5A80271D40029B019CD6
:1004F0001D407F003D4B6200D35A029A134202D046
:100500003268126893832B420ED03949062C04D1ED
:10051000344B1B891B093B400B60230032682E3390
:100520009B009B58100098470134072CE2D171E1E1
:100530003E005936FF36019A01211A41DCB20A42C7
:1005400000D1CCE01A00083251016918C81D03908F
:10055000C879317A0292C0B23278014011406022EB
:1005600010421AD05A01AD184022FF35287A1042A5
:100570000DD02A72C03A14431E4A9471602211426F
:1005800000D147E11B01FB18E0331B6852E0202239
:10059000287A1042F2D02A72EEE7102210422BD0B5
:1005A0001021039A11701021FA186132FF3212786B
:1005B0000A4200D12EE10B4A5901521852681B0120
:1005C000FB1892040B49DC33920C1B680A8038003C
:1005D0003EE7C04624000020A50D000034000020A6
:1005E00038000020BC000020FF3F00F02C0E00006F
:1005F000280000202C000020032210422ED00220D0
:100600005A01AD18FF352E7A064215D02872802582
:1006100081486D422C438471804CA218103252687C
:100620009204920C42808A0700D1F3E00D331B0143
:10063000FB185B687849CAE70126287A3042F2D075
:1006400075482E728471754CA41862689204920CDD
:10065000028062681201920C8280E4E70C22104250
:100660003DD008205E01AD19FF352A7A02421ED026
:1006700028726A4880190226857E354202D0857E1E
:10068000B54385768020404204436348029A8471D2
:10069000386852018218D279920700D5BAE00C224C
:1006A000114200D1B6E01B01FB18D8336DE70420DE
:1006B0002A7A0242F3D02872584880190226857A95
:1006C000354202D0857AB54385725348029A8471C7
:1006D000386852018218D279D207E0D59AE0013306
:1006E0000136082B00D026E794E00423AC8BA4B29B
:1006F0001C4226D0AB834A4B1B689C4601231D003D
:100700002A0061469A40114210D019003A68083117
:100710004901885C8006400F032807D1885C800768
:10072000800F012802D15218102111710133082BBA
:10073000E6D13B00A5331B78DB0702D57B68380088
:10074000984708231C420CD00021354A30681160BC
:10075000026893830300A5331B789B0701D5836848
:10076000984740231C4209D03068026893830300F5
:10077000A5331B78DB0601D54369984720231C422B
:1007800009D03068026893830300A5331B781B07E8
:1007900001D50369984710231C4209D030680268CC
:1007A00093830300A5331B785B0701D5C368984783
:1007B00080231C420CD00021194A30681160026865
:1007C00093830300A5331B789B0601D58369984763
:1007D00080235B001C420CD00021114A306811605C
:1007E000026893830300A5331B785B0601D5C369B8
:1007F000984780239B001C420CD00021084A306897
:100800001160026893830300A5331B787F2B01D905
:10081000036A984705B0F0BD2C000020BC00002002
:100820003400002010B5024B00201B68984710BD13
:100830004000002010B5024B01205B68984710BDB6
:100840004000002010B5024B02209B68984710BD65
:100850004000002010B5024B0320DB68984710BD14
:100860004000002010B5024B04201B69984710BDC2
:100870004000002010B5024B05205B69984710BD71
:1008800040000020002370B501250B4C2370237815
:100890000F2B00D970BD29009940084A1069084201
:1008A00006D01161064A9B009B58002B00D0984748
:1008B000237801332370EAE7BC01002000180040D0
:1008C0007C00002030B580240021074B64021A68A8
:1008D000064B013800D230BD002AFAD05A60996028
:1008E0001D682542FCD0F4E70000002010E000E085
:1008F00070470000094B196800290BD1EFF31080F5
:10090000074A002805D172B6BFF35F8F054908700A
:10091000012111701A6801321A60704758000020D6
:100920005C00002004000020084B1A68013A1A609D
:100930001B68002B09D1064B1B78002B05D0012228
:10094000044B1A70BFF35F8F62B6704758000020E7
:100950005C0000200400002010230249CA681A42EB
:10096000FCD070470008004070B584780278457864
:10097000012040260540204080240849AD010B6A33
:10098000C001B3432B43A343034303200240044865
:100990001202034013430B6270BDC04600080040C2
:1009A000FFFCFFFFF8B5082806D800F0F1F91405A0
:1009B000050C0E1A072034001720F8BD0223194A2F
:1009C000116A0B4313620020F7E70223154A91696D
:1009D0000B439361F7E70223124A118A0B431382F8
:1009E000F1E702230F4A918A0B439382EBE702223D
:1009F00000240D4E0B4D33680C4F13433360AA8413
:100A0000B847B368EB627368AB62AC84B8473368CD
:100A10009BB2AB84D7E70223054A11780B431370CE
:100A2000D1E7C046000800406000002059090000DE
:100A3000440800407FB5C2221E21194BD2009A60A3
:100A4000184A0024536801AD8B43536001232B7077
:100A5000E0B22900144B01349847252CF8D100242A
:100A60006B4601265C709E701C7068460F4B984761
:100A70000F4B062098470F4B98470F4B29001C72CD
:100A80005C729C72DC72062320002B700B4B6E6034
:100A90006C702C726C7298472000094B98477FBD90
:100AA00000080040004000415D0C000069090000A2
:100AB000A5090000D10A000000040040F10A00006E
:100AC000950B0000014B5878C0097047000C00409E
:100AD0000823054A91690B4393610123034A13706C
:100AE00011781942FCD1704700040040000C00400E
:100AF000F8B50C784B782402060005000443002B5F
:100B000002D08023DB021C434B7A002B02D08023CF
:100B10001B031C434B68012B12D95D1E1D40022292
:100B2000002D06D01D02802335439B0207E00135CE
:100B300052009A42FBD380232D0235435B031C43B2
:100B40000B7A002B02D080239B031C430C4FB84729
:100B50000028FBD10B4B98470B4B1E70B847002861
:100B6000FCD10A4B9D601D00B8470028FCD18022B3
:100B70006B68520213401C436C60054B9847F8BDEC
:100B8000C50A0000F5080000080C0040000C0040F9
:100B90002909000070B50500094CA0470028FBD1C9
:100BA000084B9847084B1D70A0470028FCD18023B4
:100BB000064A5B0251680B435360054B984770BD72
:100BC000C50A0000F5080000040C0040000C0040BD
:100BD0002909000010B50400064B9847064B074A48
:100BE0001C7080235188DB010B435380044B9847D2
:100BF00010BDC046F5080000020C0040000C00408B
:100C00002909000010B504000E4B98470E4B0F4AFF
:100C10001C700F4B0F4C58885988000511405980A3
:100C20005988000F2140598011008022D2015C8830
:100C30001442FCD15A8800020A4002435A80064BF3
:100C4000984710BDF5080000020C0040FFF0FFFFC0
:100C5000000C0040FFBFFFFF2909000010B50C7811
:100C6000034B240204439847024BA4B25C8010BD9E
:100C7000050C0000000C00407047000010B5054B4B
:100C80009847054B9847054B9847054B9847054BA8
:100C9000984710BD350A0000F1080000790C0000EB
:100CA0000D020000790C0000FEE7000021482249F7
:100CB00070B5884204D00023204CCA18A24232D317
:100CC00000211F4B1F4A934231D3FF211E4B1F4A65
:100CD0008B43936002220C25082430261C4B1D48B0
:100CE0005A62C378FC398B431343C370C378AB4358
:100CF0002343C370184B987BB04306002020304339
:100D00009873987BA84304439C73987B8843024361
:100D10009A738023114A51680B435360104B9847D4
:100D2000104B9847FEE7C55804331560C5E702C36A
:100D3000C9E7C0465C0E000000000020080000204B
:100D400008000020C00100200000000000ED00E0CD
:100D5000FC7000410050004100480041004000414B
:100D6000E50D0000690D000070B5064B8026FA24E1
:100D70009847054DB602A400EE612000034B98474A
:100D8000FAE7C0467D0C000000440041C5080000A1
:100D900002B4714649084900095C49008E4402BC0E
:100DA0007047C046414208401C2101231B04984261
:100DB00001D3000C10391B0A984201D3000A0839EC
:100DC0001B09984201D30009043902A2105C401AA1
:100DD0007047C0461B1C1D1D1E1E1E1E1F1F1F1FF1
:100DE0001F1F1F1F70B500260C4D0D4C641BA41057
:100DF000A64209D1002600F021F80A4D0A4C641BD6
:100E0000A410A64205D170BDB300EB589847013637
:100E1000EEE7B300EB5898470136F2E7480E0000C2
:100E2000480E0000480E00004C0E000004000800B0
:100E3000700080000100000100020000F8B5C0460B
:100E4000F8BC08BC9E467047DD000000F8B5C046FF
:0C0E5000F8BC08BC9E467047B5000000CE
:080E5C00401F0000010000002E
:0400000300000CAD40
:00000001FF
