:10000000A02400202D01000029010000290100008A
:1000100000000000000000000000000000000000E0
:1000200000000000000000000000000029010000A6
:10003000000000000000000029010000290100006C
:100040002901000029010000290100008D1600008F
:10005000AD14000029010000290100000D2B000053
:1000600029010000290100002901000029010000E8
:1000700029010000290100002901000029010000D8
:100080002901000029010000051A000029010000D3
:10009000290100000000000000000000290100000C
:1000A00029010000290100002901000029010000A8
:1000B0000000000010B5064C2378002B07D1054B3B
:1000C000002B02D0044800E000BF0123237010BDC4
:1000D000E00000200000000008490000084B10B5B7
:1000E000002B03D00749084800E000BF0748036819
:1000F000002B00D110BD064B002BFBD09847F9E731
:1001000000000000E4000020084900000849000049
:100110000000000010B5024B9847024B984710BDF5
:1001200039050000113A0000FEE70000F8B52A4A40
:100130002A4B9A4211D01A00294B9A420DD2294AD1
:1001400003339B1A9B0801339B000022234822495A
:100150008C58845004329A42FAD1234A234B9A4253
:100160000AD2D34321495B1803218B4304339B18E4
:10017000002102C29342FCD11D4AFF211D4B8B433B
:100180009360FD3990235B001B4AD1501B4AD37802
:100190000325AB4302242343D370D3780C27BB43FE
:1001A00008263343D370164B987B3022904320228D
:1001B00010439873997BB943314399739A7BAA434F
:1001C00022439A730F4A536880210B4353600E4BAE
:1001D00098470E4B9847FEE70849000000000020B2
:1001E000E000002004000020E00000209C0400202B
:1001F00000ED00E0000000000070004100500041F0
:1002000000480041004000415D3D0000492D0000D4
:10021000F0B5CE46474680B5C026F6050423736088
:100220002C4B2D4A9A62C0252D069D6242201A5CF5
:100230000124A24301210A43D2B21A543127DA5DC4
:100240003338814682430A43D2B2DA55842290463B
:100250007C324746F251583A9446204A6746DA5172
:10026000DD512037DA5DA2430A43D2B2DA55143F9A
:10027000DA5D82430A43D2B2DA55802292004046C8
:100280003250174A60461A5062461D502132944639
:100290009A5CA2430A43D2B260461A54DA5DBA3875
:1002A000024001300243DA55102272600D4A9A6210
:1002B0009D6244255A5DA2430A43D2B25A55313455
:1002C0001A5D484682430A43D2B21A550CBC904686
:1002D0009946F0BD00440041040000400001004088
:1002E0000002004010000040044A116A80235B02B3
:1002F0000B431362024A034B5A80704700040040CC
:100300001E420000000C004010B5054B9847054BFD
:100310009847002204490548054B984710BDC04640
:10032000E902000011020000004000426C040020BD
:10033000E905000010B5074B5A6908210A435A61C4
:10034000DA6907390A43DA6103490448044B9847DC
:1003500010BDC04600040040002000416804002099
:100360002507000010B5034A034B5A80034B9847FA
:1003700010BDC04605420000000C0040D10700003F
:1003800030B50E4B4A22995C0125A9430124214333
:10039000C9B299543520195C3B3A91430D3A114347
:1003A00019544B215A5CAA432243D2B25A541A5CC4
:1003B0003C390A4011310A431A5430BD004400410F
:1003C000044A136A04210B431362034A034B5A8005
:1003D0007047C0460004004014420000000C00407A
:1003E00010B5054B9847002204490548054B98472E
:1003F000054B984710BDC046C103000000080042ED
:1004000070040020E10A00008103000010B50248DA
:10041000024B984710BDC04610E000E059070000AD
:10042000044A116A80231B010B431362024A034BE7
:100430005A807047000400401B420000000C00403E
:1004400010B5054B9847054B9847020004490548ED
:10045000054B984710BDC04621040000011A00005A
:10046000002C00424C04002075080000F0B5C64680
:1004700000B5C024E40580225204A2601A4B8027F4
:10048000FF059F621949996262615820195C042234
:10049000904691431954195C0126B1430125294323
:1004A000C9B219541C38195C0B329143093A1143F3
:1004B000195480218904A1609F620D4F9F62616180
:1004C00059215C5C424694435C545A5CB2432A43D3
:1004D000D2B25A541A5C4A390A4051310A431A546A
:1004E00004BC9046F0BDC04600440041000100C07D
:1004F000000200C0064BDA6920210A43DA615A691A
:1005000020310A435A61034A034B5A807047C04660
:100510000004004006400000000C004010B5034BF2
:100520009847034B9847034B984710BDF5040000CC
:100530001D0E00006D04000010B5194B9847C02334
:10054000DB05802292029A619A60164B8022D205C6
:100550009A62154A9A6251215A5C012082435A5488
:10056000124B9847124B9847124B9847124B98479B
:10057000124B9847124A936920210B439361114A09
:10058000114B5A80114B9847020011491148124BE8
:100590009847124B9847124B9847124B984710BDFB
:1005A000E113000000440041020000C00903000004
:1005B0003503000065030000E10300000D040000A6
:1005C0000004004004420000000C004089160000B6
:1005D000001400407C040020B90900004104000020
:1005E0008D0700001D05000070B504000D000028F7
:1005F0000CD00800431E9841C0B239220449054B73
:10060000984729002000044B984770BD0020F4E76C
:10061000F8450000711100004D13000070B5040092
:100620000D00431E9841C0B24E220449044B984726
:1006300029002000034B9847002070BDF8450000BA
:100640007111000085130000F0B5DE4657464E4696
:100650004546E0B583B006000D00914601930028A1
:100660001ED0002A1ED01800431E984167221F4941
:100670001F4FB847340030001E4B9847010080469A
:1006800001981D4B984748424841C0B2692217491A
:10069000B8470027194B9B46194E1A4B9A4608E05B
:1006A0000020E3E70020E1E74744BFB2019BBB42E3
:1006B00013D92000D84729002000B0470028FAD0DD
:1006C00029002000D0474B46D8554346012BEBD993
:1006D0004B46DB19000A5870E6E7380003B03CBC13
:1006E00090469946A246AB46F0BDC046F84500008C
:1006F0007111000091130000FD3C0000B3130000D5
:10070000A9130000C5130000EFF31083036072B655
:10071000BFF35F8F7047BFF35F8F036883F3108869
:100720007047000070B504000D0000280CD00800D0
:10073000431E9841C0B22B220449054B984729001B
:100740002000044B984770BD0020F4E714460000D9
:10075000711100001514000010B5024B1860024B17
:10076000984710BDFC0000207918000010B5044B1C
:100770001C68044B984701002000034B984710BDAC
:10078000FC000020D51300008D18000010B5014BAF
:10079000984710BD7515000070B50C4B5C68A04201
:1007A0000ED0012200210126FF2503E02A00531864
:1007B0005B080AD1A042F9D9002A06D03100F6E739
:1007C000024B1B68002B00D0984770BD0001002031
:1007D00010B5054B012252425A6000221A600348AC
:1007E000034B984710BDC046000100209907000048
:1007F0001D14000070B506000C00150000280DD077
:100800000800431E9841C0B234220549054B984761
:1008100033682A0021003000984770BD0020F3E7BC
:10082000304600007111000070B506000C00150084
:1008300000280DD00800431E9841C0B23D22054952
:10084000054B984773682A0021003000984770BD17
:100850000020F3E7304600007111000010B5436935
:10086000002B00D0984710BD10B58369002B00D035
:10087000984710BD70B505000C00002811D0080085
:10088000431E9841C0B233220749084B98472100C4
:100890002800074B9847074B2B60074B6B600020E5
:1008A00070BD0020EFE7C046444600007111000013
:1008B0001D1900005D08000069080000F8B5CE466B
:1008C000474680B5814603689C46002B05D08E685C
:1008D0001C0000250127BF1A0DE0124B984718E0B5
:1008E000FB18A06880464344B3420CD2236825001D
:1008F000002B0BD01C0063689342F1D8A06880469F
:1009000043449B1AF0E7A44507D02C002000064B77
:1009100098470CBC90469946F8BD4846014B98470D
:10092000F7E7C0469D110000C9110000F0B5C646AA
:1009300000B582B00700446903690133984603613A
:10094000037EDB0711D4037E9B070ED4002C10D04E
:10095000434662689B1AA26893420AD314239C46BA
:10096000844463460193124E14E03B7E02221343FB
:100970003B7602B004BC9046F0BD7D69E368200080
:100980009847002DF5D02C0043466A689B1AAA6848
:100990009342EED30198B047237C012BEDD143461F
:1009A0006360424621000198024B9847E5E7C04644
:1009B00011120000BD08000070B505000C000028F1
:1009C00011D00800431E9841C0B23B220749084B92
:1009D000984721002800074B984700232B61064BBE
:1009E0002B60002070BD0020EFE7C0465C46000091
:1009F000711100002D1600002D090000F8B5CE463B
:100A0000474680B504000F009046002826D00029F4
:100A100026D01000431E9841F1221249124B9847EC
:100A20000834124D2000A8470028FBD00026104BA8
:100A300099460E4DB95D2000C8472000A847002800
:100A4000FBD001364645F5D30A4D2000A8470028C3
:100A5000FBD030000CBC90469946F8BD0020DBE787
:100A60000020D9E774460000711100009D170000B6
:100A70008D170000A7170000F8B5CE46474680B591
:100A800004000F00904600281DD000291DD0100042
:100A9000431E9841862252000D490E4B984700266E
:100AA00008340D4D0D4B99462000A8470028FBD077
:100AB0002000C847B85501364645F5D330000CBC78
:100AC00090469946F8BD0020E4E70020E2E7C046E2
:100AD0007446000071110000B11700009517000066
:100AE00070B505000C00002813D00800431E984183
:100AF000C0B234220849094B984728000830210029
:100B0000074B9847002803D1064B6B60064B2B60C0
:100B100070BD0020EDE7C046744600007111000072
:100B20004D170000790A0000FD09000010B504000F
:100B3000431E9841C0B253220449054B98472000F8
:100B40000830044B9847002010BDC0467446000092
:100B5000711100007917000070B504000D00002825
:100B60000AD00800431E9841C0B269220349044BD1
:100B700098472C60002070BD0020F6E77446000006
:100B80007111000010B50400431E9841C0B2D72275
:100B90000349044B984720000830034B984710BD89
:100BA0007446000071110000B1170000F0B5040098
:100BB0000E4B5A78904217D0002300200B4F0F267F
:100BC00026403D0008E0013040B204280AD020331E
:100BD000EA185278A24206D0D95D0029F3D1964294
:100BE000F1D100E00538F0BD0020FCE7080100204D
:100BF0000020704770B504000D000A4B9847420171
:100C0000094B9B189A780023032A01D0180070BD65
:100C10004001054B181883692900200098470300FC
:100C2000F4E7C046AD0B000008010020F0B585B028
:100C300005000F001600514B98470400002F62D1A9
:100C40004F4B420199180020C870D35C002B0ED086
:100C500062014B4B9B1801229A706401484B1C198E
:100C6000E178E36932002800984705B0F0BD8B7841
:100C7000032B0CD0424B62010C329A1864011C19F0
:100C800060780021E36998470223A370EDE73C4AAE
:100C90000B000C254D5761010C3152185878DB6957
:100CA00001219847002817D06201354B9B18052277
:100CB0009A70033ADA70002D09DB6401304B1C197D
:100CC00060788023184301212E4B9847CDE76401BB
:100CD0002B4B1C196078F6E76401294B1C1904237F
:100CE000A3706378002201920292002D08DB80320B
:100CF000134301A8037201234372234B9847B4E7BF
:100D00000F221340F5E7012F0AD0022F1DD0032F29
:100D10002CD042011A4B9B1806229A70DA709CE77D
:100D2000174B420199180220C870D35C002B05D0E4
:100D30006201134B9B1805229A708EE702228A707B
:100D4000002128000F4B984787E70D4B4201991867
:100D50000420C870D35C002B05D06201084B9B189F
:100D600001229A7079E702238B707EE74201044BDF
:100D70009B1800229A700532DA706EE7AD0B000006
:100D800008010020D1260000A5280000F0B5C646C5
:100D900000B504001D4B9847060045010C351C4B5F
:100DA0005D19290020001B4B9847C0B208280AD0C3
:100DB00001212000184DA847802020430121A84789
:100DC00004BC9046F0BD00212000134B9846984784
:100DD0008027274300213800C04772010C4B9B1825
:100DE00001229A705B692900200098470028E7D10A
:100DF0007601074B9E190523B37001212000064C94
:100E0000A04701213800A047DAE7C046AD0B00003B
:100E10000801002035280000D126000010B5104B35
:100E2000984700281BDB0F4C8022002120000E4B2E
:100E3000984723008034FF210C4A59705A619A6107
:100E4000DA612033A342F8D109490020094CA047B8
:100E500009490120A04709490220A047002010BDF0
:100E6000B120000008010020B73D0000F10B000098
:100E70008D0D0000DD2A0000F50B00002D0C000098
:100E800010B5014B984710BDB92A000010B5014BB1
:100E9000984710BD8D21000010B5014B984710BD3B
:100EA000DD21000010B5014B984710BDED21000079
:100EB000F8B505000E0017000F4B9847002814DA0C
:100EC000FF200D4B9847041E12DB3A00310028002A
:100ED0000A4B9847002807DB094A640113195D7023
:100EE00003231E40A6540020F8BD14204042FBE717
:100EF00015204042F8E7C046AD0B0000FD21000080
:100F00000801002010B582B200210020014B984753
:100F100010BDC046B10E000070B50500064B9847E5
:100F2000041E07DB2800054B98476401044B1C197D
:100F3000FF23637070BDC046AD0B00002923000085
:100F40000801002070B504000E4B9847051E15DB04
:100F500043010D4A9B5C5A425341013341010A4A05
:100F6000521893702000094B9847002800DB70BD91
:100F70006D01054B5D190023AB70F8E7122040426C
:100F8000F5E7C046AD0B000008010020F523000086
:100F9000F0B5D6464F464646C0B586B00400077A3F
:100FA0003800404B98470500667A636898460028E9
:100FB00000DA71E004A83C4B98476A013B4B9B1850
:100FC0009A7817236B441A701B78012B10D004A851
:100FD000374B984717236B441B78DBB2052B5ED049
:100FE000062B23D00120002B3CD11320404239E0B6
:100FF0002E4B99466B019A464B46534403229A70F6
:1010000004A82B4B98474B465246D35C002B10D07C
:10101000237A721E9641F6B22268019242460292EB
:101020007FB2002F17DB0F22134016E01020404242
:1010300018E06B011D4AD218D17C0902937C5B1821
:101040009BB2002B14D10423937000220126237A33
:101050002168019102928022134301A80372467213
:10106000144B984706B01CBC90469946A246F0BD6A
:1010700042469A4200D91A006D010C494D19297B4C
:101080007F2905D8237A2168019102920026CAE7B8
:101090009A42B6417642DAE712204042E2E7022065
:1010A000E0E7C046AD0B0000090700000801002082
:1010B00017070000A528000070B50400002905D01E
:1010C000012921D00221134B984770BD124B98473C
:1010D000051E1CDB022120000E4B98470028F4D08F
:1010E000002120000B4B98470028EEDB6D010B4BD5
:1010F0005D190123AB700233EB70EB690022032111
:10110000200098470020E0E7024B9847DDE71220D7
:101110004042DAE7D1260000AD0B000008010020B4
:1011200070B50D0014000F4B98470300221E08D025
:10113000002B05DB012D0BD0002D04D0022D0CD08F
:1011400070BD094AF4E74001084B18184261F7E7FF
:101150004001064B18188261F2E74001034B181852
:10116000C261EDE7AD0B0000F10B000008010020AB
:10117000002800D100BE70470368002B0AD08B42C4
:101180000AD01B68002B03D09942FAD1012000E05D
:10119000002070470020FCE70120FAE770B504004A
:1011A0000D00064B984701235840C0B2392204492C
:1011B000044B984723682B60256070BD79110000AF
:1011C000904600007111000003680B6001607047D9
:1011D00070B505000E0004680A4B9847012358407B
:1011E000C0B24F220849094B98472B68002B03D106
:1011F0002E60336005E01C002368002BFBD12660C5
:10120000336070BD7911000090460000711100003C
:101210000368002B01D01A680260180070470000B4
:101220000300064A1268002A04D0044A1068C31852
:10123000136070470249014A1160F6E788010020F7
:10124000A02400200020704770B504000D00394B29
:10125000C01842424241D0B294223749374B984796
:10126000374B1A685201E023DB001A40354B5968AE
:1012700049011B68DB0E0B43FF210B401A43637EC1
:10128000DB09FCD123789B0704D500232370637E00
:10129000DB09FCD101232370637EDB09FCD12285AD
:1012A000EA00521B9200284B9B189A786270DA78F9
:1012B000A2701A79E2701A7C2275DA8AA2841A8BDB
:1012C000E284997E2A22A154DB88A380637EDB0915
:1012D000FCD1EB005B1B9B001B4AD318DB6823612E
:1012E000637EDB09FCD1EB005B1B9B00164AD31825
:1012F0001B7A2372637EDB09FCD1EB005B1B9B0036
:10130000114AD3185B8AA383637EDB09FCD1EB000F
:101310005B1B9B000C4AD3189B8A2384637EDB09EA
:10132000FCD1EB005D1BAD00074B5D196B782370A2
:10133000002070BD00C0FFBDCC4600007111000050
:101340002460800020608000B046000070B5050079
:101350000C00431E9841C0B2C5220649064B98476F
:101360002C602000054B984701002000044B984753
:1013700070BDC046CC46000071110000451200004F
:10138000491200000268137802210B431370704762
:101390000268537EDB09FCD190888006800F0338F9
:1013A000431E9841013070470368187E012318409E
:1013B00070470268137B02210B431373537EDB09D2
:1013C000FCD170470268537EDB09FCD1508B80B2A0
:1013D00070470000014B58437047C04680BB000077
:1013E00010B5074B5A685A60064B9847064B98470A
:1013F0000220064CA047064B9847FD20A04710BD91
:10140000004000410D160000BD170000B11500009E
:10141000E91700000160002070470000204A53785F
:10142000DB09FCD11E4A5378DB09FCD11C4B1B782D
:101430009B070AD500221A4B1A701A005378DB0951
:10144000FCD1174A5378DB09FCD10122144B1A70E6
:101450001A005378DB09FCD1114A5378DB09FCD11F
:101460000F4B00229A705A605A619A61DA611A78B9
:1014700002210A431A701A005378DB09FCD1094B88
:10148000102280215A50BFF34F8FBFF36F8F01316D
:10149000FF315A501A60044B186000207047C04654
:1014A0000018004000E100E08C010020F0B5D646B5
:1014B000474680B585B0294B1A69D9680A4003921E
:1014C000039A1A61264B1868431E9841C0B2D22273
:1014D0002449254B9847039B002B39D0234B9A4630
:1014E000FF24234F019498462AE0013EF1B28A423C
:1014F0000CD88B185B10DEB22340DB00DB5D83422F
:1015000004D09842F1DD0136F2B2F0E7039B2A00E5
:101510008240934303930398C047013840B2431C71
:1015200004D0019B002600210022EAE70B4B1A6938
:10153000D9680A400392039A1A61039B002B07D0D3
:101540000398D047013840B20125431CE9D1EDE7AB
:1015500005B00CBC90469A46F0BDC046001800404D
:101560008C010020EC46000071110000093D0000D4
:10157000E44600000C4B18003A300C491A880A81E6
:1015800002338342FAD108490B003C336C310748DF
:1015900004CB42608B42FBD1044B00225A61013ADA
:1015A0001A6100207047C046044700000004004252
:1015B000C30709D5104B802252009A600F4A5A6027
:1015C0001A005378DB09FCD1830709D50A4B0222A4
:1015D000FF329A600A4A5A601A005378DB09FCD13C
:1015E000430708D5044B074A9A60074A5A601A0015
:1015F0005378DB09FCD17047000C0040000709005C
:10160000010509000218000002070900064B1A7ABA
:10161000D2B21A725A7AD2B25A729A7AD2B29A72F2
:10162000DA7AD2B2DA7270470004004070B5040072
:101630000D00431E9841C0B233221049104B984709
:10164000E56001232B80AB7ADB09FCD1E268937A59
:10165000DB09FCD180331380937ADB09FCD1E2688B
:1016600093698023DB009361937ADB09FCD101331A
:10167000E268D371034B1C60002070BD704700000E
:1016800071110000900100200020704710B5074B39
:101690001C68E3681B7ADB0707D52368002B01D0A1
:1016A00020009847E36801221A7210BD90010020C3
:1016B00010B504001F4BC3189B0ADBB2002B04D0EB
:1016C0001D4A1E4900201E4B9847E369DB0718D4CA
:1016D0000322E3691A42FCD123689B070BD52368D8
:1016E0000222934323600132E3691A42FCD10222B1
:1016F000E3691A42FCD1052323600322E3691A42FD
:10170000FCD10122E3691A42FCD10E4B2360032273
:10171000E3691A42FCD1C0239B0263600722E3699C
:101720001A42FCD1084BA3810023A3733022A35497
:10173000002010BD00F8FFBD3A02000088470000FD
:1017400071110000040031401814000070B505004C
:101750000C00431E9841C0B2B4220449044B984780
:101760002C602000034B984770BDC046884700009E
:1017700071110000B11600000268136802210B43CA
:1017800013600131D3691942FCD17047036889B2F3
:10179000198570470368188DC0B270470368187EBA
:1017A0000123184070470368187E8007C00F7047F8
:1017B0000368187E4007C00F70470000084B094AB5
:1017C0009A829A6902210A439A611A7F1D310A405E
:1017D0001A7719000222CB681A42FCD07047C04623
:1017E000000800406E0700008222D2011D4B5A8083
:1017F00002221D4B9A8419000E32CB681A42FCD08B
:101800001A4A194BDA621A4B1B689B0E3F2B1FD0EA
:101810009B02802292001343134A9362154B9384D8
:10182000938C5B0717D51100D022CB681340D02BC7
:10183000FBD10D4A938C80210B439384094A537842
:10184000DB09FCD1084A936902218B4393617047FD
:10185000FC23DB01E0E704491022CB681A42FCD0EC
:10186000E7E7C046000C004000080040B905FF7DD6
:101870002460800006080000024B034A5A600522DB
:101880001A60704710E000E0FFFFFF0070B50B0E1C
:101890005E1EF6B2002B13D034000E4A0E4D80208F
:1018A00040025560956013680342FCD0013CE4B2ED
:1018B000FF2CF6D13306F61A084B9C46614471188A
:1018C000044B596099601900802252020B68134240
:1018D000FCD070BD10E000E0FFFFFF00010000FF42
:1018E00010B50A4B9C466044800A0330084B1B78B5
:1018F000C0B2834208D05A22FF3206490020064B6C
:1019000098470120404210BD0020FCE700D4FFBDF5
:1019100000000020A44700007111000070B5050010
:101920000C000800304B98472C61E37BDB09FCD1AD
:1019300023889B0704D500232380E37BDB09FCD1AC
:1019400001232380E37BDB09FCD183001B189A0071
:10195000264B9B185A88228019792172DB88638173
:101960000C231340082B29D0002B38D11F498300AA
:101970001A1892008A189289228318188000081871
:10198000038A63831A4B9C4225D01A4B9C466444BD
:10199000A40A1234E3B2220624D41F221A400123DF
:1019A0009340154A80215350BFF34F8FBFF36F8F81
:1019B0000131FF3153501360002070BD0B4983008B
:1019C0001A1892008A18D268A261181880000818A4
:1019D0000369E361D6E7094B1D601223DDE70120AF
:1019E0004042EAE70020E8E7E1180000000000209C
:1019F000002C004200D4FFBD00E100E09401002073
:101A00000020704770B50C4B1D682C69A37BDB0769
:101A100006D50123A3732B68002B01D0280098471B
:101A2000637B9B0706D50223A3736B68002B01D051
:101A30002800984770BDC0469401002000207047E0
:101A400070B5837C0F221340C17C083A0A40012AFA
:101A50000BD05A0119498C4662441021D1715B01A7
:101A6000174A94466344197070BD4A060ED5C27C6D
:101A700040218A43C2745A01124CA4466244802514
:101A80008224640015550624FF341155C27C0821B8
:101A90008A43C2740C495A018C180025A572A57698
:101AA0001300064CA44663446F24DC71044B9C462F
:101AB00062441470807C8B6E9847D5E700510041DA
:101AC00008510041005000419801002010B520222B
:101AD0008A40D2B2817C0F230B405B0105498C46C2
:101AE00063441A708268807C034B1B6F0121984706
:101AF00010BDC046085100419801002010B5837CFC
:101B0000FF2B02D0C27C520600D410BDC27C402400
:101B1000A243C27482680248046F1800A047F4E729
:101B20009801002030B583B0837C01AC2525257059
:101B300025356570FF2B1BD0C47C640618D50F2497
:101B40002340002916D05C010E4DAC46644480252C
:101B5000257101AC645C59010A4DAC466144CC71FD
:101B60005B0109498C4663441C701100074B984780
:101B700003B030BD5C01034DAC4664444025657143
:101B8000E7E7C0460051004108510041FD1A00003E
:101B900070B582B0837C0F22134001AA0424147014
:101BA000043454705D01002931D01A00083252010A
:101BB000324C145D6406640F0A015219304DAA18A4
:101BC000957AEDB2022C2AD0AC0741D5C57C947A27
:101BD0000226B443947201AA545C5A01294EB446B9
:101BE0006244D4715B01284A944663441C70072305
:101BF0002B40012B3FD1C37C5B063CD5C37CDB096A
:101C0000994238D000221900204B984733E01A003F
:101C100008325201194C145D07221440CCE7EC073E
:101C2000D2D5947A0125AC43947201AA545C5A012E
:101C3000144DAC466244D4715B01134A944663442C
:101C40001C704B1E9941C9B20422104B984712E0F8
:101C50005A00521812010A4882180020907201AAF4
:101C6000515C5A01074884466244D1715B01064ABF
:101C700094466344197002B070BDC04600500041E4
:101C8000980100200051004108510041251B00002F
:101C9000F0B5C64600B50C4D2C0074342935FF351F
:101CA0000A4B9846FF27002603212000C047A7744F
:101CB000E6741434AC42F7D1602200210248044B90
:101CC000984704BC9046F0BD98010020FD1A000022
:101CD000B73D0000F0B5C64600B504000E00837C99
:101CE0000F251D40002900D1AAE06A015A4B9B181C
:101CF00058698004800C238A584A934200D19AE0A4
:101D0000013B9AB2E37C07271F40002E05D06B01F0
:101D100053498C4663440221D971A368C118A1605C
:101D2000636899424AD25B1A9BB2E27C920635D52F
:101D3000228A101C92B29A4200D9181C83B298468B
:101D400023689C4661444246E068464B9847E168F8
:101D50006A01414B9B1819616A013F4B9B185A69F4
:101D600041468904890C920B92030A435A615A69CD
:101D70003D490A405A61002E07D1012F59D04A220D
:101D80006B013A498C4663441A706D01344B9C4692
:101D9000654480236B7104BC9046F0BD1A1C802002
:101DA0008001834201D9324B1A8893B29846236846
:101DB00059186A01284B9B181961CDE7E37CDB06B3
:101DC0000FD5E37C10229343E3746A01224B9B18E6
:101DD0005A69920B92035A615A6923490A405A611F
:101DE000C9E7012F0ED06D01224B9C4665444A2362
:101DF0002B70218A024091420BD0002120001E4B03
:101E00009847C8E76D011B4B9C4665444B232B70DC
:101E1000EFE7E37C40229343E374A07C0E4BDB6E40
:101E2000A16898470028B6D1E37C40221343E374AD
:101E3000E3E74E22A4E7E77C07231F40074A66E753
:101E4000038A064A0020934200D059E7E37C072723
:101E50001F400020014A60E798010020FF030000B6
:101E600000510041A53D0000FF3F00F00951004135
:101E7000B847000008510041FD1A0000F8B5DE46E1
:101E800057464E464546E0B504008846837C0F25FC
:101E90001D40002957D06A017D4B9B185A681201DA
:101EA000920C92465F68BF04BF0CBB46068A794B12
:101EB0009E4200D1CDE0013EB6B25F463740E37CA2
:101EC00007221A4091464346002B05D06B01724A07
:101ED000944663440122DA71E37C9B060FD5636864
:101EE000002B39D0A0681B1A9BB22268944660442C
:101EF000E1681A00BB4200D93A00684B9847636812
:101F0000002B29D04246002A42D0228ABA423FD929
:101F1000E37C10229343E374A3685B44A3604B46C5
:101F2000012B00D187E06B015D4A94466344252272
:101F30001A70002D02D1564BE2681A600021200071
:101F4000584B984759E0068A524B9E4200D18EE08A
:101F500000239B469A46AEE7E37CDB0600D47FE095
:101F6000E37C1022934320221343E374484A6B011D
:101F7000E1689950218AD3185A68890409094A48A6
:101F800002400A435A605A68920B92035A6022E058
:101F9000A2685244A2609342C1D99B1A9BB2E17CD1
:101FA000890630D5228A111C92B29A4200D9191C96
:101FB0008BB2E0686A01364950506A013449891889
:101FC0004A689B041B093848024013434B604B6826
:101FD0009B0B9B034B604346002B08D125224B46AD
:101FE000012B2FD06B0131498C4663441A706D016F
:101FF000294B9C46654440232B713CBC9046994636
:10200000A246AB46F8BD218A8B420AD980218901BC
:102010008B420DD8B34321688A1869011C480A50C5
:10202000CBE78B42F7D2E17C20200143E174F2E759
:1020300080239B01EFE76B01194A944663442D22EC
:102040001A7076E76A01124B9B1800229A762D329D
:10205000C8E7BF05BF0DC37C07221A40914635E78C
:102060004346002B0CD1A3685344A36057E7C37CBD
:1020700007221A409146002700239B469A462BE7E9
:10208000238ABB4200D943E7A3685344A36046E7D1
:1020900098010020FF03000000510041A53D000011
:1020A00008510041FD1A0000FF3F00F009510041B6
:1020B00010B5314B9B78DB071FD42F4903228B7857
:1020C0001342FCD12C4B1B789B070ED52A4A137860
:1020D00002218B431370110003228B781342FCD131
:1020E000254902228B781342FCD10122224B1A701F
:1020F000190002328B781342FCD11F4901228B78E0
:102100001342FCD11D4B1E4A1A665A669A66DA665D
:102110001A671C4B98471C4B1B685A0B1F210A401F
:10212000980C01409B015B0F1F2A1FD01F291FD055
:10213000072B1FD092010A431B0313430E4A13853A
:10214000D37803210B43D370D3780C210B43D37086
:1021500004231370110003228B781342FCD1064B29
:10216000064A5A6201221A81002010BD1A3ADDE7A0
:102170000239DDE7023BDDE7005000419801002015
:102180003D1A0000911C000024608000104B9B78D9
:102190009B071AD10E4903228B781342FCD10C4BBA
:1021A0001B78DBB29A0708D402221343084A137043
:1021B000110003228B781342FCD18022054B1A6058
:1021C000054A034B1A830020704711204042FBE769
:1021D0000050004100E100E08D020000024A138936
:1021E00001218B4313817047005000418023184325
:1021F000014B98727047C04600500041F0B50F2463
:10220000044043B29C46002C54D02500002B07DB31
:10221000032319402700022C50D91220404225E008
:10222000A51CF5E76346002B21DB7B00DB199B0037
:102230003B4C1B59002B66D17B00DF19BF00384B8C
:10224000FF58384BAE007419A4001C198034276065
:1022500060337419A4001C19A28427340131217041
:102260007519AD005B19263318700020F0BD7B0096
:10227000DB199B002A4CE3185B68002B06D17B001E
:10228000DF19BF00264BDF197F68DAE77B00DB1917
:102290009B00234CE3185B899342F0DA1320404201
:1022A000E4E714204042E1E714204042DEE7132037
:1022B0004042DBE70323194000250027AB005B19F0
:1022C0009E00184B9B1986331B78FF2BE9D1002900
:1022D000A8D1002C04D06346002B01DB0234E4B209
:1022E000A3001B199B000F4CE41886342378FF2BA6
:1022F000DAD17B00DB199B00094C1B59002BD6D08F
:102300006346002BB3DB7B00DB199B00044CE31816
:102310001B89934200DB8FE713204042A6E7C046AB
:10232000BC47000098010020F8B505000F240440C8
:1023300047B2002C10D02000002F02DB022C02D963
:10234000F8BDA01CFAE706000130830018188000D1
:10235000254B6033181802E0234874300026B30080
:102360009B199A00204B9B1886331B78FF2BE7D0D4
:10237000F90F03221D4B9847B3009B199A001A4B83
:102380009B188033DA7907231340012B1BD0002FD1
:102390001FDB6D01164B9C46654480225200AB5CEE
:1023A00007218B43AB54104B6033B1008A19920064
:1023B0009A182732002010708E19B6009B19263308
:1023C000FF221A70BCE708356D010022084BEA5461
:1023D000E9E76401064B9C46644480225200A35CFA
:1023E00070218B43A354DEE798010020251B0000D9
:1023F00000500041F0B5C64600B50F22024040B281
:10240000002A00D192E0130000280BDB11000832F3
:102410005201AA4C155DEDB2022900D88DE01220C0
:102420004042E5E0931CF1E776322A4275D1A34A97
:1024300090464444112080225200A0549A00D218A1
:1024400095009F4A60325219928C95039D48054031
:1024500080208000824200D9CDE00138FF388242DE
:1024600000D913E1802A00D900E1402A00D915E102
:10247000202A00D902E1102A00D917E1F838904249
:1024800080414042060735437D609504AD0CB9E0BC
:1024900070222A4244D18A489E00F2189200821883
:1024A0008032D2795207520E1543844A94466444CE
:1024B00080225200A5546030F618B6008019808C36
:1024C0008504AD0C0132FF320723904214D8013A43
:1024D000FF3A013B90420FD8013B80280CD8013BCA
:1024E000402809D8013B202806D8013B102803D8F2
:1024F000F83A8242924153421B072B437B61802270
:1025000082235B00E25449016D4B591800238B76FE
:1025100000206DE0122040426AE01420404267E053
:102520001420404264E01420404261E080235B00BC
:10253000624AD55CEDB2002100239A00D2189400C3
:102540005F4A1219863212789446FF2AE2D04C0173
:102550005B4A17199E00F618B60092198032D67998
:1025600007223240012A00D15EE7002890DB6A078B
:10257000D9D153489E00F218920082188032D27945
:102580005207520F15434D4A94466444802252002C
:10259000A5546030F618B6008019858CAB03494805
:1025A00018400132FF320723954214D8013AFF3A0E
:1025B000013B95420FD8013B802D0CD8013B402DAB
:1025C00009D8013B202D06D8013B102D03D8F83A3D
:1025D000AA42924153421B0703437B6040220623D9
:1025E000FF33E2544901364B591800238B72002007
:1025F00004BC9046F0BDE020C00505437D60950415
:10260000AD0C07200007284378610625FF354026DA
:10261000665582277F008020E055294849014118EE
:1026200000248C728C760F3461460C409900C918D6
:10263000890041188031096863011950C018416848
:1026400092041409204A0A40224342604268920BD5
:1026500092034260194A9A18B021D15556551B4A27
:102660009446634410221A700020C1E7A020C005E0
:1026700005437D609504AD0C0520C3E7C0208005AF
:1026800005437D609504AD0C0320BBE7C020C00569
:1026900005437D609504AD0C0620B3E78020C0059E
:1026A00005437D609504AD0C0420ABE780208005D8
:1026B00005437D609504AD0C0220A3E70050004166
:1026C0009801002000C0FF0FFF3F00F009510041BA
:1026D000F0B50F23034040B2C40F002B09D01A00FD
:1026E000002804DB022B05D91220404219E09A1C75
:1026F000F8E70022012915D0002936D093009B1855
:102700009B00474AD218863212780F2313405B0190
:10271000444A9446634498791023A3401840431ECA
:102720009841F0BD1025A540EDB23D4990008318B9
:102730009B00CB1886331E780F2333405E01394F40
:10274000BC46664475712025A540ECB25B01364D50
:10275000AC4663441C70821892008A188032D37988
:1027600008210B43D3710020DBE793009B189900ED
:102770002B4B5B1886331B780F210B405D012B49D7
:102780008C466544832149006E5CF639A1400020E7
:102790000E42C6D0C9B20530FF3029542021A140D5
:1027A000C8B25B01224EB446634418700823FF335D
:1027B000EB5C0B4209D00823FF33E854073BFF3B97
:1027C000A340DBB2822149006B5493009B1899000F
:1027D000134B5B188033D97907230B40012B0BD0A7
:1027E00093009A1892000E4B9B188033DA790821D7
:1027F0008A43DA71002094E70633FF33E95CD63B65
:102800000020194200D08CE793009A189200044BE4
:102810009B188033DA7908218A43DA7181E7C04650
:102820009801002000510041095100410050004131
:102830000851004170B50D000F2318404401164B9C
:102840001B1919685B689B049E0C02281AD8002D7E
:102850001BD0124B9C46644480235B00E35C112B2D
:1028600016D10823FF33E35C0020DB0600D470BDE3
:10287000082228000A4B984710220823FF33E2540D
:102880003000F4E712204042F1E712204042EEE728
:1028900013204042EBE7C046980100200050004161
:1028A000A53D0000F0B5DE4657464E464546E0B52C
:1028B00085B08046067A0F23334076B2002B00D1D4
:1028C000D3E01800002E39DB0400734A6032411C4B
:1028D0008D006D18AD005519810009188900521836
:1028E000918C6E4A91422BD04F1EBFB24246526825
:1028F0001740022B00D9A4E043461B686848834276
:1029000020D998180190674884460198604519D8E5
:102910009B0717D1002E32DB914200D9AFE0002F88
:1029200030D0A3001B199A005B4B9B1880331B68A7
:10293000002B00D18BE0002399460FE0981CC3E7E1
:102940000F00D3E7A3001B199A00534B9B18803349
:102950001B68002B00D177E001239946A3001B19C7
:102960009A004D4B9B188033DB7902201B070CD556
:1029700005B03CBC90469946A246AB46F0BD00234C
:102980009946EBE700239946E8E703A8464B9847AA
:10299000A3001B199A00404B9B188033DB795B0620
:1029A00044D4A3001B199B003B4A93469B448023BD
:1029B0005B449A46DB79402213435246D37103A805
:1029C0003A4B98475B46424612685A6742465268FD
:1029D0009A6700235A46D367F20FD2015346D9793A
:1029E0007F230B40494649011343202293430B4365
:1029F0005246D37143465B7A0022002B02D07A42C2
:102A00007A41D2B2A3001C19A400234B1B198033B6
:102A10001201DF7910218F431743DF71002E0ADB8B
:102A200000212800224B98470020A1E703A81F4B54
:102A3000984701209CE7002128001E4B9847002062
:102A400096E71220404293E71320404290E712207D
:102A500040428DE7132040428AE743465A68970573
:102A6000BF0D0D4D7435002446E70B4A6032918C42
:102A70000A4A9142F1D0084D7435002434E7A3008E
:102A80001B199A00044B9B1880331B68002BE1D064
:102A90000123994662E7C04698010020FF03000029
:102AA000FFFFFF1FFF7F002009070000170700003E
:102AB0007D1E0000D51C00000B1E06D0012806D08C
:102AC000002801D1034A13667047034BF6E7014A19
:102AD0005366F9E7980100203D1A00000B1E08D04C
:102AE000002808D0012809D0022806D1054A13671A
:102AF00003E0054BF4E7034A93667047014AD36647
:102B0000FBE7C046980100203D1A0000F8B5824B53
:102B10001E8CB6B2002E03D0804C74340025B9E070
:102B2000998B1B8B0B405A0717D49A051CD41A0695
:102B30003ED470221A4244D11A075ED4DB07EBD58B
:102B4000754B774A9A839A82923AFF3A1A83734B6B
:102B50005B6E00210420984705E004226E4B9A83A7
:102B60006E4B1B6E9847F8BD6B4B6D4A9A839A82E9
:102B7000923AFF3A1A83694B1B891B071B0F032BE1
:102B80000CD0664B1B8D1B071B0F00216F3A032BCC
:102B900005D0624B5B6E03209847E4E700225201A8
:102BA0005E4B9B1819894904490D00221A81F0E7F0
:102BB0008022594B9A83594B5B6E00210520984720
:102BC000D1E7554B9A839A82554A1A83554B9B8C71
:102BD0009B060CD45349323AFF3ACB681340D02BB2
:102BE000FBD14E4B5B6E002102209847BBE74D495D
:102BF0001022CB681A42FCD0F3E7474B0021802219
:102C000052009954F83A9A8368329A82444A1A8355
:102C1000454B9847414B5B6E002101209847A2E746
:102C2000CB0607D44B0608D48B062ED500213F4B8C
:102C300098472AE03E4B984727E001213B4B9847B5
:102C400023E04B060ED40B0710D48B0712D40723B6
:102C50001A40012A19D14B0710D4CB0615D5344B95
:102C6000984712E00121314B98470EE00121314B8A
:102C700098470AE00121304B984706E000212D4B90
:102C8000984702E00021294B984701351434092D5B
:102C900000D168E72000A17CFF29F6D00F230B406C
:102CA000012199400E42F0D05901244FBC466144A5
:102CB000C9795B01224FBC4663441B781940E4D0BC
:102CC000AB005A199200154B9C4662447032D27D7B
:102CD00047231340012BA3D053B2002BB1DB8B064B
:102CE000D0D44B070CD4CB070ED407231A40012AAB
:102CF000CBD10B070CD4CB06C7D50D4B9847C4E7F7
:102D000000210C4B9847C0E701210E4B9847BCE7C8
:102D10000121084B9847B8E7005000419801002076
:102D20000102000000080040911C0000CD1A0000C4
:102D3000411A0000911B0000D51C00000051004109
:102D4000095100417D1E0000F0B59FB0434A536811
:102D50001E218B4302252B435360414B9847414C26
:102D60001DA92000404B98472000404B98471CABC2
:102D70007F221A708032DA701BAB00241C705D70E9
:102D800003219970FB3ADA701AAB1C705D70997070
:102D9000DA70374F00213800364EB0470121380035
:102DA000B04702213800B04703213800B047324B0A
:102DB0009C705D709C80314A1A612A4D304E21E032
:102DC00000236A4613800233210029482D4FB8475B
:102DD0006B465B786A4612782B4901A82B4FB8479F
:102DE000642101A82A4B98471CA96B461B784B709D
:102DF0006B465B788B7004221D98264B98473220D7
:102E0000254B98472800B0470028D9D001226946B1
:102E10001D98224B98476B461B787F2BD0D10222FE
:102E200069461D981D4B98476B465B78FF2BC7D1B1
:102E30001BAC6B461B78E25C194901A8134B984701
:102E4000642101A8124B98476B461B78E45C1AAAD0
:102E5000D25C0A4B1343084A1361B1E700400041BA
:102E60001501000070040020590B00002D0B00001C
:102E70006C0400201D060000004000420018000FF6
:102E8000850B000049060000F8470000C93D00001E
:102E900081310000F50700006D07000029080000DF
:102EA000E0470000F0B583B006000C0015000A787A
:102EB00053069B0F012B00D06CE0097963791B024C
:102EC0000B433B490978994203D0394949789942E3
:102ED00063D152B2002A0EDBA779E3791B021F43AC
:102EE000344B98476378202B18D0222B3CD00D20F0
:102EF000404203B0F0BD012D52D06378212B51D157
:102F0000A279E3791B021343072B4ED1002307223A
:102F1000274908313000284CA047EAE7072F34D171
:102F2000002D1AD0072201006846244B9847204BF9
:102F30001B69002B05D06846984703000020002B32
:102F4000D7D01B4A1300009991606A4692889A81F3
:102F50006A4692799A730020CBE70023072201008A
:102F60003000154CA047C4E70023002200210020B8
:102F7000114DA8470E4B5B69002B09D0A278E07871
:102F80000002104398470020B3E701204042B0E719
:102F90000020AEE70A204042ABE70A204042A8E703
:102FA0000020A6E70D204042A3E701204042A0E711
:102FB00080030020A138000051330000A53D00002F
:102FC000F0B5DE4657464E464546E0B583B016009E
:102FD000012968D000290BD0022900D193E00D20EF
:102FE000404203B03CBC90469946A246AB46F0BD79
:102FF000836898461068002800D187E00193012378
:1030000043449B46474F484B994682784379082171
:103010008B43022B02D00A204042E2E701998A4604
:103020000B789A4275D0FF2B76D10A700522716811
:103030003E4B9847041E1ED130680378C018042206
:1030400071683A4B9847019B5B4527D0019B013340
:1030500001930028D9D10A204042C2E753469D700F
:103060002800314B98473460207820187168304B25
:103070009847041EE0D0A57863791B022279D21804
:1030800092B2E1782800B847002848D16BB2002BF3
:10309000E4DB43461D712800C847E4E70122254BC5
:1030A0005A7100209DE78468002A08D013685B7974
:1030B00008229343022B02D00A20404291E7237852
:1030C000FF2B08D0FF232370A078FF2803D01A4BD2
:1030D0009847FF23A3706378FF2B08D0FF2363700A
:1030E000E078FF2803D0144B9847FF23E370207942
:1030F000FF2803D0104B9847FF23237100220D4B6C
:103100005A7100206DE71B2040426AE70A204042C6
:1031100067E71220404264E71C20404261E7142028
:1031200040425EE7B10E0000450F0000BD380000D0
:10313000F338000080030020190F000010B50A4B7F
:10314000984701280CD80948094BC3610062183020
:10315000084B984708490120084B9847002010BDAC
:1031600011204042FBE7C046AD380000800300203C
:10317000C12F00004538000014000020AD370000CA
:1031800010B50400074B5B79002B07D0054BD878AE
:1031900001230A002100044CA04710BD1120404229
:1031A000FBE7C046800300205133000010B5064BFA
:1031B0001C69002C07D00022012120006368984779
:1031C0002468002CF7D110BDA403002070B50600C0
:1031D0000D00074BDC68002C03D170BD2468002C67
:1031E000FBD06368002BF9D0290030009847F5E741
:1031F000A4030020F8B507000E0015000D4B9C68D5
:10320000002C04D1002011E02468002C0DD063684C
:10321000002BF9D02A00310038009847002806D04A
:103220000A30F1D00120404200E00020F8BD01202A
:10323000FCE7C046A403002010B5064B5C68002CD8
:1032400003D110BD2468002CFBD06368002BF9D09B
:103250009847F7E7A403002010B51400002903D015
:10326000012929D0002010BD1378002BFAD1537802
:10327000052B11D0092BF5D19278124BDA76A37871
:10328000E178090219434B1E994103310D4B9976A0
:1032900001200D4B9847E5E790780C4B9847A378B1
:1032A000E178090219434B1E99410231054B997689
:1032B0000120054B9847D5E7012221000020044B4F
:1032C0009847CFE7A4030020CD310000A50E0000F1
:1032D000F531000010B50D4B98470D4C0223A37635
:1032E0000023E376637700200A4B9847207F0A4B40
:1032F00098470A4A00210020094CA047094A0221A8
:103300000020A0470020084B984710BDAD310000B9
:10331000A4030020190F0000050F00006D3300000A
:103320002111000059320000450F000010B500289F
:1033300002D0012804D010BD0020034B9847FAE7C3
:10334000024B9847F7E7C046CD310000D532000068
:1033500010B584B001AC019102922072637220001A
:10336000014B984704B010BD910F0000F0B5C64660
:1033700000B584B005000C000022B54B9847431CF3
:103380000DD0012301280BD022781F23110099436F
:103390000BD0CBB2802B00D1F8E0002300E000235B
:1033A000180004B004BC9046F0BD63780B2B00D924
:1033B000E4E19B00A749CB589F460123002200214E
:1033C0002800A54CA04743424341DBB2E8E7A2787E
:1033D000002A1AD0A14B1B6859681868A04B98475F
:1033E000002800D1D4E1C3781B028178C91889B2C2
:1033F0004118039104229B4B98470290002806D065
:10340000FF24964F974B98461AE0974B9847012315
:10341000002200212800904CA04743424341DBB2E8
:10342000BEE7340000E0340002980378C018029030
:10343000039B019304221900C04702900028E6D0A4
:103440008678A642F0D03C69002CEAD002AA00217E
:103450002000636898470028E5D02468002CF5D147
:103460003400E1E71F231A400023022A98D1A379F0
:10347000E27912021A430023002A00D090E7207953
:1034800000217A4B98470123002200212800724C2A
:10349000A047012384E71F231A400023022A00D0FB
:1034A0007EE7A379E27912021A430023002A00D0B2
:1034B00076E7207901216D4B9847012300220021F6
:1034C0002800654CA04701236AE7A378E5782D0220
:1034D0001D432379647924021C43604A1368D27E19
:1034E000596818685E4B9847002847D00290C37807
:1034F0001B028178C91889B2411803910422594BE3
:10350000984700283CD0574E08E002980378C0182E
:10351000029004220399B047002833D08378A34255
:10352000F3D1C378AB42F0D102904C4B1E69002E10
:103530002AD002AA0121300073689847002804D0DD
:103540003668002EF5D100232AE7736802AA00210D
:10355000300098470023002800D021E7002D05D037
:103560003E490122A2404B7F13434B7700230022A8
:1035700000210020384CA047012311E700230FE76A
:1035800000230DE700230BE7002309E76378062BF0
:1035900033D0D9B2062922D9082B00D1AFE00A2BAB
:1035A00000D0EDE02D4B5A7F217963791B020B434C
:1035B0001A41D30700D4CAE0284B1D690023002D0F
:1035C00000D1EDE62200022128006B689847002810
:1035D00000DBC8E02D68002DF4D10023E0E6002BCD
:1035E00000D0CDE01F231A40D3B2012B00D892E0C7
:1035F000022A00D19FE00023D2E6A378E2781202EB
:103600001A43130A022B33D0032B56D0012B01D0BF
:103610000023C5E6A279E3791B0213431A1C122B7F
:1036200000D9122294B20D4B1B6859681868012208
:103630000C4B9847002800D1A4E000232200010091
:103640002800054CA04743424341DBB2A8E6C046F0
:10365000F53100000C48000051330000A4030020A5
:1036600039390000BD380000AD310000B91000004C
:10367000A379E67936021E43464B1F7F1B68013251
:10368000D2B259681868444B9847011E7CD0C37861
:103690001B028478E418A4B20023A64205D9013F96
:1036A0003E4073427341DBB22600320028003B4C9F
:1036B000A04743424341DBB272E6A379E1790902B4
:1036C00019430C00334B1E7F1B68D2B2596818682F
:1036D000334B9847011E59D002780023944206D9F3
:1036E000731E2340180043424341DBB21400220002
:1036F00028002A4CA04743424341DBB250E6254B09
:10370000DA7E59690A705969002301222800234C86
:10371000A047012344E6002302931E4C022202A983
:103720006069204B984761690023022228001B4CE6
:10373000A047012334E6207902211B4B984700283B
:1037400003DB012318400290E7E7002328E6114B32
:10375000002259690A7059690023013200200F4C78
:10376000A04701231CE60B4B5A69107059690023CE
:1037700001220020094CA047012311E600230FE697
:1037800000230DE600230BE6002309E6002307E6ED
:10379000002305E6A403002039390000513300005E
:1037A000A1390000A53D0000B910000010B50128A6
:1037B00009D0002802D002280AD010BD07480430E2
:1037C000074B9847F9E705480830054B9847F4E759
:1037D00002480C30024B9847EFE7C046A403002094
:1037E000D111000070B50400431E9841C0B20C4ACC
:1037F0000C490D4B98470D4B984700280EDB0C4D9C
:103800002022002128000B4B98476C610A490020B8
:103810000A4CA0470A490120A047002070BDC046BD
:10382000550300003C480000711100001D0E00000F
:10383000A4030020B73D000039320000810E0000D3
:103840002D33000010B5010002481030024B98479C
:1038500010BDC046A4030020D111000010B50B4BD1
:103860009B7E002B0CD100280DD0084B18600268FD
:10387000D2791A7701229A76054B9847002010BD1D
:1038800004204042FBE709204042F8E7A40300205F
:103890008D0E000010B5014B984710BD990E000029
:1038A000014B58697047C046A4030020024B987E24
:1038B000C30600D510207047A403002010B588422D
:1038C00011D20378012B10D9447894420AD0C01841
:1038D000814206D90378012B09D944789442F6D164
:1038E00000E0002010BD0020FCE70020FAE70020E7
:1038F000F8E7884215D20378012B14D94278042ABC
:1039000013D0052A0CD0C018814208D90378012BA6
:103910000DD94278042A0CD0052AF4D100E0002009
:1039200070470020FCE70020FAE70020F8E70020BD
:10393000F6E70020F4E7000070B50C001500022245
:10394000164B984700281DD084421CD90378012BC0
:103950001BD94378022B1AD14379AB4212D0C278DB
:10396000120283789B189BB2C018844209D903784D
:10397000012B0ED94378022B0DD14379AB42EED106
:1039800000E0002070BD0020FCE70020FAE70020E6
:10399000F8E70020F6E70020F4E7C046BD38000055
:1039A000F8B50D001700884212D200240A4E0322F7
:1039B0002900B04700280ED00378012B0AD9A7426E
:1039C00009D00134E4B2C0188542F0D8002002E0EA
:1039D000002000E00020F8BDBD38000010B506480A
:1039E0004030064B9847064B98470648064B984789
:1039F000064B984710BDC046C4030020E5370000C1
:103A00003D3100001C0000205D38000095380000AA
:103A100010B5014B984710BDDD3900000022430866
:103A20008B4274D303098B425FD3030A8B4244D386
:103A3000030B8B4228D3030C8B420DD3FF220902C8
:103A400012BA030C8B4202D31212090265D0030B87
:103A50008B4219D300E0090AC30B8B4201D3CB037D
:103A6000C01A5241830B8B4201D38B03C01A5241BF
:103A7000430B8B4201D34B03C01A5241030B8B42C1
:103A800001D30B03C01A5241C30A8B4201D3CB02AC
:103A9000C01A5241830A8B4201D38B02C01A524191
:103AA000430A8B4201D34B02C01A5241030A8B4294
:103AB00001D30B02C01A5241CDD2C3098B4201D3AC
:103AC000CB01C01A524183098B4201D38B01C01A2A
:103AD000524143098B4201D34B01C01A52410309A1
:103AE0008B4201D30B01C01A5241C3088B4201D350
:103AF000CB00C01A524183088B4201D38B00C01AFD
:103B0000524143088B4201D34B00C01A5241411A23
:103B100000D20146524110467047FFE701B5002030
:103B200000F0F0F802BDC0460029F7D076E77047F4
:103B300003460B437FD4002243088B4274D303090E
:103B40008B425FD3030A8B4244D3030B8B4228D3AF
:103B5000030C8B420DD3FF22090212BA030C8B42D5
:103B600002D31212090265D0030B8B4219D300E075
:103B7000090AC30B8B4201D3CB03C01A5241830BFA
:103B80008B4201D38B03C01A5241430B8B4201D3AA
:103B90004B03C01A5241030B8B4201D30B03C01AD3
:103BA0005241C30A8B4201D3CB02C01A5241830A4D
:103BB0008B4201D38B02C01A5241430A8B4201D37C
:103BC0004B02C01A5241030A8B4201D30B02C01AA6
:103BD0005241CDD2C3098B4201D3CB01C01A52410D
:103BE00083098B4201D38B01C01A524143098B4296
:103BF00001D34B01C01A524103098B4201D30B017F
:103C0000C01A5241C3088B4201D3CB00C01A5241A3
:103C100083088B4201D38B00C01A524143088B4268
:103C200001D34B00C01A5241411A00D20146524101
:103C3000104670475DE0CA0F00D04942031000D320
:103C40004042534000229C4603098B422DD3030A75
:103C50008B4212D3FC22890112BA030A8B420CD385
:103C6000890192118B4208D3890192118B4204D3AE
:103C700089013AD0921100E08909C3098B4201D32E
:103C8000CB01C01A524183098B4201D38B01C01A68
:103C9000524143098B4201D34B01C01A52410309DF
:103CA0008B4201D30B01C01A5241C3088B4201D38E
:103CB000CB00C01A524183088B4201D38B00C01A3B
:103CC0005241D9D243088B4201D34B00C01A524112
:103CD000411A00D20146634652415B10104601D39F
:103CE0004042002B00D54942704763465B1000D329
:103CF000404201B5002000F005F802BD0029F8D0CF
:103D000016E770477047C04610B50023002802D060
:103D100000F004F8431C180010BDC04641420840A2
:103D20001C2101231B04984201D3000C10391B0AEB
:103D3000984201D3000A08391B09984201D30009AF
:103D4000043902A2105C401A7047C0461B1C1D1D9E
:103D50001E1E1E1E1F1F1F1F1F1F1F1F70B50026A8
:103D60000C4D0D4C641BA410A64209D1002600F096
:103D7000BBFD0A4D0A4C641BA410A64205D170BDC0
:103D8000B300EB5898470136EEE7B300EB5898477D
:103D90000136F2E7F4480000F4480000F44800005F
:103DA000F8480000002310B59A4200D110BDCC5C49
:103DB000C4540133F8E703008218934200D17047DE
:103DC00019700133F9E700000EB410B59DB002A9D7
:103DD000029008610B4882248860486101204042BB
:103DE0001FABC881084804CBA400006801938C81F4
:103DF00000F0CCF80023029A13701DB010BC08BC70
:103E000003B01847FFFFFF7F7C000020032370B53D
:103E1000CD1C9D43083506000C2D1ED20C25A94251
:103E20001DD8300000F06DFB254A146821000029E0
:103E300019D1244C2368002B03D1300000F032FB51
:103E400020602900300000F02DFB431C2CD10C23F6
:103E50003000336000F056FB03E0002DDFDA0C2366
:103E60003360002070BD0B685B1B1AD40B2B03D989
:103E70000B60CC18256003E08C420ED163681360A0
:103E8000300000F03FFB200007220B30231D904341
:103E9000C31AE7D05A42E250E4E74B6863600C0073
:103EA000EEE70C004968C2E70323C41C9C43A04210
:103EB000E0D0211A300000F0F5FA431CDAD1C6E751
:103EC0004404002048040020F0B58E6885B0070047
:103ED0000C00039201939E4239D890238A89DB001B
:103EE0001A4234D00325096923685B1A0293636977
:103EF00002985D43EB0F5D19019B6D1001331B1898
:103F0000AB4200D91D00530532D529003800FFF718
:103F10007DFF061E09D10C233B6040230120A289AE
:103F200040421343A38105B0F0BD029A2169FFF717
:103F300039FFA389144A1A4080231343A381029BAB
:103F40002661F61826606561019EED1AA560019B49
:103F5000B34200D21E0032000399206800F0BFFA7D
:103F6000A36800209B1BA36023689E192660DAE7E4
:103F70002A00380000F012FB061EE0D1216938004B
:103F800000F0C2FAC7E7C0467FFBFFFFF0B59FB065
:103F9000029005938B890F0016001B0611D50B6943
:103FA000002B0ED14021FFF731FF38603861002827
:103FB00005D10C23029A013813601FB0F0BD4023D5
:103FC0007B61002306AD6B6120336B761033AB76DB
:103FD00034002378002B47D1A31B04930DD0A31BDF
:103FE000320039000298FFF76FFF431C00D1B5E0A3
:103FF0006A69049B944663446B612378002B00D16B
:10400000ACE00122002352426A6002A954325218E5
:1040100001342B60EB60AB601370AB65584E05222A
:104020002178300000F050FA621C002820D1296865
:10403000CB0604D5532302AE20309B1918700B0712
:1040400004D553232B2002AE9B19187023782A2BFA
:1040500016D000200A21099B2278303A092A55D926
:10406000002815D0099313E0252BB5D00134B0E713
:104070000123801B8340296814000B432B60CDE78C
:10408000059B181D1B680590002B39DB0993140054
:1040900023782E2B0BD16378621C2A2B3ED1059BF3
:1040A00002341A1D1B680592002B34DB0793354E32
:1040B00021780322300000F007FA002806D04023C0
:1040C000801B83402A68013413432B602178062229
:1040D0002D48661C297600F0F7F9002846D02B4BB6
:1040E000002B2FD12968059B0722C90528D59B18CD
:1040F0009343083305936B69039A9B186B6167E7D9
:104100005B42EB6002230B432B60C0E74B4301345F
:104110009B180120A0E701235B42C7E7002314009E
:104120000A201A006B6021783039092903D9002B45
:10413000BDD00792BBE74243013452180123F2E796
:104140000733D5E705AB00933A00114B29000298DD
:1041500000E000BF0390039B0133CCD1BB890B98D7
:104160005B0600D429E70120404226E705AB009317
:104170003A00074B2900029800F07AF8EAE7C046B7
:10418000B4480000BA480000BE480000000000002B
:10419000C93E0000F7B5150001938A680B690090CD
:1041A0000C00934200DA130022002B604332127895
:1041B000002A01D001332B6023689B0602D52B68AF
:1041C00002332B60062723681F4027D02300433388
:1041D0001B785A1E93412268920630D4220001991E
:1041E00043320098089EB047431C25D00623206820
:1041F0002A68E16803400025042B03D18D1AEB43A4
:10420000DB171D40A3682269934201DD9B1AED185C
:104210000027BD4220D1002010E00137E3682A6862
:104220009B1A9F42D2DA2200012319320199009889
:10423000089EB047431CF0D101204042FEBD302013
:10424000E1184331087021005A1C45310978A21841
:10425000433202331170C1E7220001231A3201995F
:104260000098089EB047431CE6D00137D1E7000014
:10427000F0B58BB006920A00433207930590049282
:104280000A7E0C00109B6E2A00D18FE017D8632A9B
:104290002CD008D8002A00D199E0582A54D0260002
:1042A0004236327029E0642A01D0692AF7D12168A8
:1042B0001A68080623D5111D1960156825E0732AB0
:1042C00000D188E008D86F2A29D0702AE7D12022AF
:1042D00009680A43226003E0752A20D0782ADED1DB
:1042E00022007821453211706C4A30E00E001A68C5
:1042F0004236111D196013683370012379E04906B5
:10430000D9D5111D19600023D55E002D03DA2D23A8
:10431000049A6D421370624B0A2703932FE02068C2
:104320001968050603D5081D18600D6805E04006EC
:10433000F9D50D68081D1860ADB2594B08270393D5
:104340006F2A18D00A2716E045310A70544A0392A2
:104350001A682168101D18601568080622D5CB0759
:1043600002D52023194321601027002D03D12023DB
:1043700022689A4322602300002243331A70636844
:10438000A360002B5CDB0422216891432160002D97
:1043900058D1049E002B64D02600039B42361B7824
:1043A00033705EE04806DAD5ADB2D8E709681A681E
:1043B000080605D5111D1960136862691A6006E0C8
:1043C0004906F7D5111D19601368A28A1A800023C7
:1043D000049E236154E01A68111D196016680021BB
:1043E0006268300000F070F8002801D0801B606027
:1043F000636823610023049A137041E0236932004B
:1044000006990598079DA847431C43D023680025BB
:104410009B070FD4099BE06898423DDA18003BE007
:1044200022000123193206990598079EB047431CC4
:1044300030D00135E368099A9B1A9D42F0DBE9E729
:10444000002DA9D0049E28003900FFF76DFB039BC7
:10445000013E5B5C280033703900FFF7DFFA051E70
:10446000F1D1082F09D12368DB0706D563682269DB
:10447000934202DC3023013E3370049B9B1B23617B
:10448000079B09AA00932100069B0598FFF782FE6F
:10449000431CB3D1012040420BB0F0BDD648000010
:1044A000C5480000002370B5064C050008002360D5
:1044B000FCF7B6FE431C03D12368002B00D02B6011
:1044C00070BDC04698040020C9B28218904201D144
:1044D0000020704703788B42FBD00130F6E710B51F
:1044E000884202D98B18984208D300239A4207D0F9
:1044F000CC5CC4540133F9E78B5C8354013AFBD2A2
:1045000010BD70477047000070B50500002910D03D
:104510000C1F2368002B00DAE4182800FFF7F1FFD6
:104520001D4A1368002B05D1636014602800FFF753
:10453000E9FF70BDA34209D9216860188342F3D115
:1045400018685B6841182160EEE713005A68002A7A
:1045500001D0A242F9D919685818A0420BD120689D
:104560000918581819608242E0D110685268411841
:1045700019605A60DAE7A04202D90C232B60D5E714
:1045800021686018824203D1106852684118216086
:1045900062605C60CAE7C04644040020F8B50700CA
:1045A0000D001600002905D11100FFF72FFC0400B3
:1045B0002000F8BD002A03D1FFF7A6FF3400F7E77B
:1045C00000F012F82C008642F2D931003800FFF7D3
:1045D0001DFC041EECD029003200FFF7E3FB29008C
:1045E0003800FFF791FFE3E70B1F1B68181F002B34
:1045F00001DA0B58C01870472E2E2F68616C2F738C
:1046000072632F68616C5F6164635F73796E632EA0
:10461000630000002E2E2F68616C2F7372632F6869
:10462000616C5F6372635F73796E632E6300000079
:104630002E2E2F68616C2F7372632F68616C5F6917
:104640006F2E63002E2E2F68616C2F7372632F689C
:10465000616C5F70776D2E63000000002E2E2F6856
:10466000616C2F7372632F68616C5F74696D657222
:104670002E6300002E2E2F68616C2F7372632F68DB
:10468000616C5F75736172745F73796E632E630022
:104690002E2E2F68616C2F7574696C732F73726383
:1046A0002F7574696C735F6C6973742E63000000FE
:1046B00000020000000000000000000000000000F8
:1046C0000000000000000000000000002E2E2F68F7
:1046D000706C2F6164632F68706C5F6164632E631C
:1046E00000000000FF000000FFFFFFFF2E2E2F68DC
:1046F000706C2F6569632F68706C5F6569632E63EA
:10470000000000000000010002000300040005009A
:1047100006000700080009000A000B000C000D004D
:104720000E000F00100011001200130014001500FD
:1047300016001700180019001A001B001C000000CA
:104740000000000001000000020000000300000063
:104750000400000005000000060000000700000043
:1047600008000000090000000A0000000B00000023
:104770002E2E2F68706C2F7274632F68706C5F72AE
:1047800074632E63000000002E2E2F68706C2F7350
:104790006572636F6D2F68706C5F736572636F6DA8
:1047A0002E6300002E2E2F68706C2F74632F68709C
:1047B0006C5F74632E630000002000004003002043
:1047C0000000000040000000000300200000000086
:1047D00040000000C0020020000000004000000077
:1047E00053656C656374696E672041444320636858
:1047F000616E2025640A0D00414443207265737583
:104800006C742025642C25640A0D00007C370000A0
:10481000643400007C370000963400007C370000D0
:10482000BA3300007C3700007C3700007C37000082
:10483000CE3300007C370000CA3400002E2E2F75C6
:1048400073622F6465766963652F75736264632E86
:1048500063000000000000000000000000000000F5
:104860000000000000000000000000000000000048
:104870000000000000000000000000000000000038
:104880000000000000000000000000000000000028
:104890000000000000000000000000000000000018
:1048A0000000000000000000000000000000000008
:1048B00000000000232D302B2000686C4C00656642
:1048C0006745464700303132333435363738394161
:1048D0004243444546003031323334353637383977
:1048E0006162636465660000F8B5C046F8BC08BC48
:1048F0009E467047DD000000F8B5C046F8BC08BC15
:084900009E467047B50000005F
:10490800030060030000000032000000F90000000E
:104918007C00000000000000A52E000024000020FC
:10492800790000201201000202000040EB03042479
:104938000001000000010902430002010080320961
:1049480004000001020200000524000110052401F2
:104958000100042402020524060001070582034021
:10496800000A09040100020A0000000705010240CC
:1049780000000705810240000000000080000020C0
:1049880000000000744800009448000054480000EB
:10499800000000000000000000000000000000000F
:1049A80000000000000000000000000000000000FF
:1049B80000000000000000000000000000000000EF
:1049C80000000000000000000000000000000000DF
:1049D80000000000000000000000000000000000CF
:00000001FF
